:020000040800F2
:1000000000500020E1130008111300081913000824
:100010002113000829130008311300080000000014
:10002000000000000000000000000000391300087C
:100030004513000800000000511300085D1300087C
:10004000291400082914000829140008291400089C
:10005000291400082914000829140008291400088C
:10006000291400082914000829140008291400087C
:10007000291400082914000829140008291400086C
:10008000291400082914000829140008291400085C
:10009000291400082914000829140008291400084C
:1000A000291400082914000829140008291400083C
:1000B000291400082914000829140008291400082C
:1000C000291400082914000829140008291400081C
:1000D000291400082914000829140008291400080C
:1000E0002914000829140008291400080000000041
:1000F0000000000000000000000000000000000000
:0C01000000000000000000005FF808F1A3
:10010C0010B5054C237833B9044B13B10448AFF345
:10011C0000800123237010BD680000200000000047
:10012C000C3D000808B5034B1BB103490348AFF362
:10013C00008008BD000000006C0000200C3D000891
:10014C0080B582B000AF01F06BF900F0BDFA00F0A1
:10015C00F3FA00F065FB00F08DFBA44802F0ACFE56
:10016C00A34800F075FE0346002B0DD1012201219E
:10017C00A04801F05AFC01219E4801F06EFCFA20C7
:10018C0001F0B0F900BFF6E701220121994801F016
:10019C004CFC00F0C5FE0021002000F081FF012284
:1001AC009549964801F004F800F0D4FE4FF4FA603B
:1001BC0001F098F900F0B4FE0021002000F070FF6F
:1001CC0001228D498E4800F0F3FF0F21002000F032
:1001DC0067FF012288498B4800F0EAFF1E210020AE
:1001EC0000F05EFF01228449874800F0E1FF00F037
:1001FC00B1FE00F039FD0346FB71FB79002B00F0DA
:10020C004381FB79392B2BD1804B00221A700122B0
:10021C000121784801F009FC00F082FE0021002049
:10022C0000F03EFF01227449754800F0C1FF0F2118
:10023C00002000F035FF01226F49724800F0B8FF32
:10024C001E21002000F02CFF01226B496E4800F0AB
:10025C00AFFF00F07FFE4FF4FA7001F043F913E1A9
:10026C006A4B1B78002B40F00F81FB79352B78D132
:10027C00664B01221A70022000F070FD00F050FE57
:10028C000021002000F00CFF01225B49604800F0C7
:10029C008FFF00F05FFE4FF47A7001F023F900F04D
:1002AC002DFC0346002B3CD000F03AFE594B9B78BA
:1002BC001A46584BDB785849584803F071F800211E
:1002CC00002000F0EDFE01224B49544800F070FF75
:1002DC00504B1B781A464F4B5B7851494F4803F0F3
:1002EC005FF80F21002000F0DBFE012242494B4851
:1002FC0000F05EFF474B9B78202B08D91E21002075
:10030C0000F0CEFE01223C49464800F051FF2D2161
:10031C00002000F0C5FE01223749434800F048FF99
:10032C001CE000F0FDFD0021002000F0B9FE0122D0
:10033C0031493E4800F03CFF0F21002000F0B0FE98
:10034C0001222D493A4800F033FF2D21002000F006
:10035C00A7FE01222849344800F02AFF00F0FAFDDC
:10036C0092E0FB79382B40F08F80284B02221A70D8
:10037C00022000F0F3FC00F0D3FD0021002000F07F
:10038C008FFE01221C492B4800F012FF00F0E2FD09
:10039C004FF4FA7001F0A6F800F0FAFB386000F0A8
:1003AC00BFFD3B68002B09D10021002000F078FE36
:1003BC0001221149204800F0FBFE5AE03B6840F254
:1003CC00E73293423ED10021002000F069FE012269
:1003DC0009491A4800F0ECFE0F21002000F060FEE5
:1003EC0001220549164800F0E3FE42E0D800002047
:1003FC0084000020000C014000000020243D000877
:10040C002C3D0008383D0008443D00085A010020EE
:10041C00503D000820010020643D00082801002008
:10042C00743D0008843D0008903D0008A03D000884
:10043C00B03D0008C03D0008D43D0008E43D000874
:10044C00F43D00083A688C498C4802F0A9FF002161
:10045C00002000F025FE01228949884800F0A8FE02
:10046C000F21002000F01CFE01228549854800F078
:10047C009FFE2821002000F013FE012280498248B3
:10048C0000F096FE00F066FD804B1B78012B6BD1C3
:10049C0001F01EF802467E4B1B68D31AB3F5FA6FB7
:1004AC0047D900F02BFB0346002B3DD000F038FD64
:1004BC00784B9B781A46774BDB7877496F4802F07C
:1004CC006FFF0021002000F0EBFD01226C496B480E
:1004DC0000F06EFE6F4B1B781A466E4B5B786F49C3
:1004EC00664802F05DFF0F21002000F0D9FD0122CB
:1004FC006349624800F05CFE664B9B781C2B08D964
:10050C001E21002000F0CCFD01225D49644800F062
:10051C004FFE2D21002000F0C3FD012258495A48FE
:10052C0000F046FE00F016FD00F0D2FF0346584ADC
:10053C0013605C4B1B781C2B10D900F0C9FF0246D2
:10054C00594B1B68D31A642B40F2918000F02CFCA1
:10055C0000F0BEFF0346544A136088E001220121DB
:10056C00524801F062FA82E0484B1B78022B7ED194
:10057C0000F0AEFF02464E4B1B68D31AB3F5FA7F60
:10058C0056D900F005FB03464A4A136000F0C8FC3C
:10059C00484B1B68002B09D10021002000F080FD86
:1005AC0001223749444800F003FE31E0414B1B68FF
:1005BC0040F2E732934212D10021002000F070FD8E
:1005CC0001222F493D4800F0F3FD0F21002000F0DF
:1005DC0067FD01222A493A4800F0EAFD18E0354B44
:1005EC001B681A462449254802F0DAFE0021002037
:1005FC0000F056FD01222249204800F0D9FD0F21C0
:10060C00002000F04DFD01221D491E4800F0D0FDD8
:10061C002821002000F044FD012219491A4800F05D
:10062C00C7FD00F097FC00F053FF0346204A13600F
:10063C00204B1B68002B15D01E4B1B6840F2E6327A
:10064C0093420FD800F044FF02461E4B1B68D31A8E
:10065C00642B0CD900F0A8FB00F03AFF0346194AB2
:10066C00136004E001220121104801F0DEF9322070
:10067C0000F038FFBDE500BFFC3D0008280100205C
:10068C0000000020103E0008903D00085A01002098
:10069C005C01002020010020643D0008743D00082E
:1006AC00843D00085B01002060010020000C01402B
:1006BC006401002068010020D43D0008E43D0008DE
:1006CC00F43D00086C01002080B590B000AF07F13C
:1006DC00180328220021184602F084FE3B1D00223C
:1006EC001A605A609A60DA601A610123BB614FF498
:1006FC008033FB6102237B634FF48033BB634FF485
:10070C00E013FB6307F11803184601F089FF0F2370
:10071C007B600223BB600023FB604FF480633B6172
:10072C0000237B613B1D0221184602F0FBF900BF40
:10073C004037BD4680BD000080B586B000AF07F1E4
:10074C00080300221A605A609A60DA60314B9B6988
:10075C00304A43F0040393612E4B9B6903F004036E
:10076C007B607B682B4B9B692A4A43F0080393619F
:10077C00284B9B6903F008033B603B680123BB607B
:10078C000123FB6000233B6102237B6107F108031B
:10079C001946214800F0AEFF0123BB601123FB601A
:1007AC0000233B6107F1080319461C4800F0A2FF27
:1007BC000223BB600123FB6007F1080319461748AD
:1007CC0000F098FF0423BB600023FB6007F10803D3
:1007DC001946124800F08EFF7823BB600123FB60A2
:1007EC0000233B6107F1080319460C4800F082FF17
:1007FC004FF46073BB600023FB6001233B6107F186
:10080C0008031946054800F075FF00BF1837BD46B0
:10081C0080BD00BF00100240000C014000080140E8
:10082C0080B500AF104B114A1A600F4B104A5A603A
:10083C000D4B00229A600C4B0022DA600A4B4FF4ED
:10084C0080421A61084B00225A61074B00229A61C0
:10085C00054B0022DA61044B00221A62024801F0B7
:10086C0015F900BF80BD00BF84000020005400407B
:10087C00801A060080B586B000AF07F1080300228D
:10088C001A605A609A60DA603B4600221A605A601D
:10089C00144B4FF080421A60124B47225A60114B96
:1008AC0000229A600F4B4FF6FF72DA600D4B00225C
:1008BC001A610C4802F0B0FA4FF48053BB6007F198
:1008CC0008031946074802F041FB00233B60002354
:1008DC007B603B461946034802F004FD00BF183705
:1008EC00BD4680BDD800002080B483B000AF7860D6
:1008FC00084B1B6800225A6200BF064B1B685B6AE0
:10090C007A689A42F9D800BF00BF0C37BD4680BC4C
:10091C00704700BFD800002080B584B000AF3B46C4
:10092C0000221A605A609A60DA6001233B6001234E
:10093C007B600023BB600223FB603B4619461048DA
:10094C0000F0D8FE002201210D4801F06EF81220B3
:10095C0000F0C8FD01220121094801F066F81E20B3
:10096C00FFF7C2FF00237B600123BB603B461946A7
:10097C00034800F0BFFE00BF1037BD4680BD00BF6E
:10098C000008014080B582B000AF0023FB716423E6
:10099C003B602A4B1B6800225A6200BF0121284889
:1009AC0001F02CF80346002B05D0244B1B685B6A26
:1009BC003A689A42F2D8214B1B685B6A3A689A42B1
:1009CC0001D8002336E01D4B1B6800225A626423B9
:1009DC003B6000BF01211A4801F010F80346002BC0
:1009EC0005D1164B1B685B6A3A689A42F2D8134BD6
:1009FC001B685B6A3A689A4201D800231AE00F4BD5
:100A0C001B6800225A6200BF01210D4800F0F6FF5E
:100A1C000346002B05D0094B1B685B6A3A689A4267
:100A2C00F2D8064B1B685B6A3A689A4201D80023DD
:100A3C0000E0012318460837BD4680BDD8000020D1
:100A4C000008014080B582B000AF0023BB71642365
:100A5C003B600023FB7142E0264B1B6800225A626C
:100A6C0000BF0121244800F0C9FF0346002B05D12B
:100A7C00204B1B685B6A3A689A42F2D81D4B1B6884
:100A8C005B6A3A689A422ED92820FFF72DFF012184
:100A9C00194800F0B3FF0346002B0BD0FB79C3F1D0
:100AAC000703012202FA03F35AB297F906301343F3
:100ABC005BB2BB710F4B1B6800225A6200BF012155
:100ACC000D4800F09BFF0346002B05D0094B1B681B
:100ADC005B6A3A689A42F2D8FB790133FB71FB7975
:100AEC00072BB9D900E000BFBB7918460837BD46C3
:100AFC0080BD00BFD80000200008014080B582B046
:100B0C0000AFFFF709FFFFF73DFF0346002B36D080
:100B1C00FFF798FF03461A461B4B1A70FFF792FF1C
:100B2C0003461A46184B5A70FFF78CFF03461A46B9
:100B3C00154B9A70FFF786FF03461A46124BDA7074
:100B4C00FFF780FF03461A460F4B1A710E4B1A78AB
:100B5C000D4B5B781344DAB20B4B9B781344DAB22F
:100B6C00094BDB781344FB71074B1B79FA799A42DA
:100B7C0005D1054B9A78054B1A70012300E0002330
:100B8C0018460837BD4680BD200100205B010020BF
:100B9C0080B586B000AF00237B6100233B6147F238
:100BAC003053FB60002202212C4800F03EFF022053
:100BBC00FFF79AFE01220221284800F036FF0A2096
:100BCC00FFF792FE00220221244800F02EFF244B56
:100BDC001B6800225A6207E0214B1B685B6AFA68AB
:100BEC009A4201D2002335E004211C4800F006FF94
:100BFC000346002BF0D01A4B1B685B6A7B610AE042
:100C0C00174B1B685A6A7969FB680B449A4202D9E4
:100C1C0040F2E7331EE00421104800F0EFFE0346DB
:100C2C00012BEDD00E4B1B685B6A3B613A697B690B
:100C3C00D31ABB60BA6813461B011344094AA2FBC2
:100C4C0003239B097B607B68142B02D940F2E733AA
:100C5C0000E07B6818461837BD4680BD000801408F
:100C6C00D8000020D34D621080B582B000AF00F0E8
:100C7C002FFC7860374B1B687A68D31AC72B01D8C6
:100C8C00002362E001227821334800F0CEFE0022DE
:100C9C001021314800F0C9FE022000F023FC4FF473
:100CAC0080712D4800F0AAFE0346002B09D10122C9
:100CBC001021294800F0B9FE264A7B6813603523C1
:100CCC0043E001221021244800F0AFFE0022202135
:100CDC00214800F0AAFE022000F004FC4FF48071C1
:100CEC001D4800F08BFE0346002B09D10122202168
:100CFC00194800F09AFE174A7B681360382324E0E9
:100D0C0001222021144800F090FE002220211248DC
:100D1C0000F08BFE022000F0E5FB4FF400710E4852
:100D2C0000F06CFE0346002B09D1012220210A4859
:100D3C0000F07BFE074A7B681360392305E0012233
:100D4C002021054800F071FE002318460837BD46E7
:100D5C0080BD00BF700100200008014080B584B048
:100D6C0000AF0346FB710023FB7312E0002201214C
:100D7C000C4800F05AFEC82000F0B4FB01220121FF
:100D8C00084800F052FEC82000F0ACFBFB7B01339E
:100D9C00FB73FA7BFB799A42E8D300BF00BF103794
:100DAC00BD4680BD000C014080B500AF012102485A
:100DBC0000F053FE00BF80BD000C014080B586B032
:100DCC0002AF0346FB7100233B73FB797B73094B2A
:100DDC001868094B1B785B0099B207F10C024FF4B1
:100DEC007A730093022300F095FF034618461037E0
:100DFC00BD4680BD740100200800002080B582B083
:100E0C0000AF78604FF47A7303227821786801F090
:100E1C007FF80346002B04D10C4B3C221A700123A3
:100E2C000FE04FF47A7303227A21786801F070F89E
:100E3C000346002B04D1054B3D221A70012300E020
:100E4C00002318460837BD4680BD00BF08000020AF
:100E5C0080B582B000AF7860304A7B681360642044
:100E6C0000F040FB7868FFF7C9FF0346002B01D167
:100E7C0000234FE0AE20FFF7A1FFD520FFF79EFF28
:100E8C008020FFF79BFFA820FFF798FF3F20FFF77C
:100E9C0095FFD320FFF792FF0020FFF78FFF402034
:100EAC00FFF78CFF8D20FFF789FF1420FFF786FFDB
:100EBC002020FFF783FF0020FFF780FFA120FFF722
:100ECC007DFFC820FFF77AFFDA20FFF777FF1220AB
:100EDC00FFF774FF8120FFF771FFCF20FFF76EFF44
:100EEC00D920FFF76BFFF120FFF768FFDB20FFF73E
:100EFC0065FF4020FFF762FFA420FFF75FFFA620ED
:100F0C00FFF75CFFAF20FFF759FF00F009F800F086
:100F1C0021F8012318460837BD4680BD7401002016
:100F2C0080B483B000AF0023FB8006E0FB88084A46
:100F3C000021D154FB880133FB80FB88B3F5806F13
:100F4C00F4D300BF00BF0C37BD4680BC704700BF58
:100F5C007801002080B588B002AF2120FFF72EFF6A
:100F6C000020FFF72BFF7F20FFF728FF2220FFF741
:100F7C0025FF0020FFF722FF0720FFF71FFF0023AC
:100F8C00FB822CE040237B6007F1080300221A60EF
:100F9C005A609A601A7300237B750DE0FA8A7B7D88
:100FAC001A447B7D013312498A5C18333B4403F8A5
:100FBC00142C7B7D01337B757B7D0F2BEED90D4B78
:100FCC0018680D4B1B785B0099B23A1D4FF47A737D
:100FDC000093112300F09EFEFB8A1033FB82FB8AE8
:100FEC00B3F5806FCED300BF00BF1837BD4680BDB0
:100FFC0078010020740100200800002080B483B028
:10100C0000AF0346FB710B46BB7113467B7197F91E
:10101C000730002B3DDBBB793F2B3AD87B79002B7B
:10102C001AD0FA79BB79DB08D8B20346DB0113443A
:10103C001A4AD35C5AB2BB7903F00703012101FAB7
:10104C0003F35BB2134359B2FA790346DB01134441
:10105C00C9B2124AD1541DE0FA79BB79DB08D8B277
:10106C000346DB0113440D4AD35C5AB2BB7903F03F
:10107C000703012101FA03F35BB2DB435BB21340BC
:10108C0059B2FA790346DB011344C9B2034AD1546D
:10109C0000E000BF0C37BD4680BC704778010020D3
:1010AC0080B483B000AF03460A46FB711346BB7194
:1010BC00054AFB791370054ABB79137000BF0C37D6
:1010CC00BD4680BC704700BF780500207905002024
:1010DC0080B584B000AF03463960FB711346BB7119
:1010EC00FB791F2B02D9FB795A2B01D92023FB71D9
:1010FC00FB79203B9BB23A68527802FB03F3BB812D
:10110C000023FB733FE03B685B68B989FA7B0A44B8
:10111C0013441B78FB720023BB732CE0FA7ABB7B65
:10112C0042FA03F303F00103002B0ED01E4B1A7886
:10113C00BB7B1344D8B21D4B1A78FB7B1344DBB238
:10114C00BA791946FFF75AFF12E0174B1A78BB7B96
:10115C001344D8B2154B1A78FB7B1344D9B2BB7924
:10116C00002B0CBF01230023DBB21A46FFF746FF0E
:10117C00BB7B0133BB733B681B78BA7B9A42CDD3E4
:10118C00FB7B0133FB733B685B78FA7B9A42BAD3E7
:10119C003B681A78044B1B781344DAB2024B1A7072
:1011AC0000BF1037BD4680BD7805002079050020B2
:1011BC0080B584B000AFF860B9601346FB7109E0EC
:1011CC00FB681B78FA79B9681846FFF781FFFB6852
:1011DC000133FB60FB681B78002BF1D100BF00BF13
:1011EC001037BD4680BD000080B485B000AF154BF4
:1011FC009B69144A43F001039361124B9B6903F002
:10120C000103BB60BB680F4BDB690E4A43F0805394
:10121C00D3610C4BDB6903F080537B607B680A4B1A
:10122C005B68FB60FB6823F0E063FB60FB6843F0EA
:10123C000073FB60044AFB68536000BF1437BD4663
:10124C0080BC7047001002400000014080B588B09F
:10125C0000AF786007F1100300221A605A609A60A0
:10126C00DA607B681B68164A934225D1154B9B6943
:10127C00144A43F008039361124B9B6903F0080373
:10128C00FB60FB68C0233B6112237B610123BB61C4
:10129C000323FB6107F1100319460B4800F02AFAEF
:1012AC00084BDB69074A43F40013D361054BDB6938
:1012BC0003F40013BB60BB6800BF2037BD4680BD84
:1012CC000054004000100240000C014080B485B076
:1012DC0000AF78607B681B68B3F1804F0BD1084B73
:1012EC00DB69074A43F00103D361054BDB6903F06B
:1012FC000103FB60FB6800BF1437BD4680BC704720
:10130C000010024080B400AF00BFFDE780B400AF16
:10131C0000BFFDE780B400AF00BFFDE780B400AFB5
:10132C0000BFFDE780B400AF00BFFDE780B400AFA5
:10133C0000BFBD4680BC704780B400AF00BFBD4647
:10134C0080BC704780B400AF00BFBD4680BC704706
:10135C0080B500AF00F0AAF800BF80BD80B586B0A4
:10136C0000AF7860144A154BD31A7B617B693B61E3
:10137C00134B1B68002B02D1114B124A1A60104BF5
:10138C001A687B6813443A699A4207D202F032F821
:10139C0003460C221A604FF0FF3309E0084B1B6820
:1013AC00FB60074B1A687B681344054A1360FB68A3
:1013BC0018461837BD4680BD0050002000040000C0
:1013CC007C050020D006002080B400AF00BFBD46D5
:1013DC0080BC7047FFF7F8FF0B480C490C4A002300
:1013EC0002E0D458C4500433C4188C42F9D3094ACF
:1013FC00094C002301E013600432A242FBD301F03C
:10140C00FFFFFEF79DFE70470000002068000020E3
:10141C00DC40000868000020CC060020FEE700003D
:10142C0080B500AF084B1B68074A43F010031360EC
:10143C00032000F02BF90F2000F008F8FFF7D4FE82
:10144C000023184680BD00BF0020024080B582B04A
:10145C0000AF7860124B1A68124B1B7819464FF488
:10146C007A73B3FBF1F3B2FBF3F3184600F035F9E2
:10147C000346002B01D001230EE07B680F2B0AD80A
:10148C00002279684FF0FF3000F00BF9064A7B68B8
:10149C001360002300E0012318460837BD4680BDC9
:1014AC000C000020140000201000002080B400AFBD
:1014BC00054B1B781A46054B1B681344034A1360F3
:1014CC0000BFBD4680BC7047140000208005002082
:1014DC0080B400AF024B1B681846BD4680BC7047F9
:1014EC008005002080B584B000AF7860FFF7F0FF76
:1014FC00B8607B68FB60FB68B3F1FF3F05D00A4B1B
:10150C001B781A46FB681344FB6000BFFFF7E0FF33
:10151C000246BB68D31AFA689A42F7D800BF00BFDC
:10152C001037BD4680BD00BF1400002080B485B0CC
:10153C0000AF78607B6803F00703FB600C4BDB6843
:10154C00BB60BA684FF6FF031340BB60FB681A021E
:10155C00BB68134343F0BF6343F40033BB60044ADE
:10156C00BB68D36000BF1437BD4680BC704700BF5A
:10157C0000ED00E080B400AF044BDB681B0A03F005
:10158C0007031846BD4680BC704700BF00ED00E065
:10159C0080B483B000AF03463960FB7197F9073014
:1015AC00002B0ADB3B68DAB20C4997F907301201C1
:1015BC00D2B20B4483F800230AE03B68DAB2084944
:1015CC00FB7903F00F03043B1201D2B20B441A76E1
:1015DC0000BF0C37BD4680BC704700BF00E100E087
:1015EC0000ED00E080B489B000AFF860B9607A60BB
:1015FC00FB6803F00703FB61FB69C3F10703042BD2
:10160C0028BF0423BB61FB690433062B02D9FB6999
:10161C00033B00E000237B614FF0FF32BB6902FA11
:10162C0003F3DA43BB681A407B699A404FF0FF31F1
:10163C007B6901FA03F3D9437B680B4013431846CB
:10164C002437BD4680BC704780B582B000AF78604F
:10165C007B68013BB3F1807F01D301230FE00A4A81
:10166C007B68013B53600F214FF0FF30FFF790FF79
:10167C00054B00229A60044B07221A60002318467F
:10168C000837BD4680BD00BF10E000E080B582B0D9
:10169C0000AF78607868FFF749FF00BF0837BD4698
:1016AC0080BD80B586B000AF0346B9607A60FB732D
:1016BC0000237B61FFF75EFF78617A68B96878690F
:1016CC00FFF790FF024697F90F3011461846FFF7C7
:1016DC005FFF00BF1837BD4680BD80B582B000AF3C
:1016EC0078607868FFF7B0FF034618460837BD46A8
:1016FC0080BD000080B48BB000AF786039600023EF
:10170C007B6200233B6269E101227B6A02FA03F3EC
:10171C00FB613B681B68FA691340BB61BA69FB69E2
:10172C009A4240F058813B685B689A4A93425ED07B
:10173C00984A934275D8984A934258D0964A934205
:10174C006FD8964A934252D0944A934269D8944A9D
:10175C0093424CD0924A934263D8924A934246D0D9
:10176C00904A93425DD8122B2AD8122B59D801A239
:10177C0052F823F0FB170008D5170008E7170008EC
:10178C00291800082F1800082F1800082F18000817
:10179C002F1800082F1800082F1800082F18000801
:1017AC002F1800082F1800082F1800082F180008F1
:1017BC002F1800082F180008DD170008F117000873
:1017CC00794A934213D02CE03B68DB683B6229E0FA
:1017DC003B68DB6804333B6224E03B68DB6808331E
:1017EC003B621FE03B68DB680C333B621AE03B68F2
:1017FC009B68002B02D104233B6213E03B689B687F
:10180C00012B05D108233B627B68FA691A6109E058
:10181C0008233B627B68FA695A6103E000233B6250
:10182C0000E000BFBB69FF2B01D87B6801E07B683F
:10183C0004337B61BB69FF2B02D87B6A9B0002E0FF
:10184C007B6A083B9B003B617B691A680F213B69F3
:10185C0001FA03F3DB431A40396A3B6901FA03F3DB
:10186C001A437B691A603B685B6803F08053002B5A
:10187C0000F0B1804D4B9B694C4A43F001039361DE
:10188C004A4B9B6903F00103BB60BB68484A7B6A07
:10189C009B08023352F82330FB607B6A03F003038E
:1018AC009B000F2202FA03F3DB43FA681340FB6040
:1018BC007B68404A934213D07B683F4A93420DD0D9
:1018CC007B683E4A934207D07B683D4A934201D1E4
:1018DC00032306E0042304E0022302E0012300E0DA
:1018EC0000237A6A02F0030292009340FA681343D1
:1018FC00FB602F497B6A9B080233FA6841F823206E
:10190C003B685B6803F48013002B06D02D4B9A6860
:10191C002C49BB6913438B6006E02A4B9A68BB6960
:10192C00DB43284913408B603B685B6803F400136E
:10193C00002B06D0234BDA682249BB691343CB60DA
:10194C0006E0204BDA68BB69DB431E491340CB60D1
:10195C003B685B6803F40033002B06D0194B5A68C4
:10196C001849BB6913434B6006E0164B5A68BB69B8
:10197C00DB43144913404B603B685B6803F48033D2
:10198C00002B21D00F4B1A680E49BB6913430B6017
:10199C0021E000BF000032100000311000002210C6
:1019AC000000211000001210000011100010024065
:1019BC000000014000080140000C014000100140F3
:1019CC0000140140000401400B4B1A68BB69DB4357
:1019DC00094913400B607B6A01337B623B681A68D0
:1019EC007B6A22FA03F3002B7FF48EAE00BF00BF9C
:1019FC002C37BD4680BC70470004014080B485B0D4
:101A0C0000AF78600B467B807B689A687B881340BC
:101A1C00002B02D00123FB7301E00023FB73FB7B43
:101A2C0018461437BD4680BC704780B483B000AFF5
:101A3C0078600B467B8013467B707B78002B03D041
:101A4C007A887B681A6103E07B881A047B681A61C8
:101A5C0000BF0C37BD4680BC704780B485B000AF6A
:101A6C0078600B467B807B68DB68FB607A88FB6860
:101A7C0013401A04FB68D9437B880B401A437B68DC
:101A8C001A6100BF1437BD4680BC704780B584B066
:101A9C0000AF78607B68002B01D101232BE17B68C0
:101AAC0093F83D30DBB2002B06D17B68002283F823
:101ABC003C207868FFF7CAFB7B68242283F83D2022
:101ACC007B681B681A687B681B6822F001021A602D
:101ADC007B681B681A687B681B6842F400421A60BA
:101AEC007B681B681A687B681B6822F400421A60CA
:101AFC0001F060F9F8607B685B68814A934207D813
:101B0C00FB68804A934294BF01230023DBB206E0BA
:101B1C00FB687D4A934294BF01230023DBB2002B68
:101B2C0001D00123E7E0FB68784AA2FB03239B0C5E
:101B3C00BB607B681B685B6823F03F017B681B689C
:101B4C00BA680A435A607B681B681B6A23F03F0122
:101B5C007B685B686A4A934202D8BB68013309E030
:101B6C00BB684FF4967202FB03F3694AA2FB032392
:101B7C009B0901337A6812680B4313627B681B68FC
:101B8C00DB6923F44F4222F0FF027B685B685C49FF
:101B9C008B4219D8FB68591E7B685B685B00B1FBF4
:101BAC00F3F3591C40F6FC730B40002B0AD0FB6876
:101BBC00591E7B685B685B00B1FBF3F30133C3F325
:101BCC000B0351E004234FE07B689B68002B11D181
:101BDC00FB68581E7B6859680B465B000B44B0FBD6
:101BEC00F3F30133C3F30B03002B0CBF01230023CE
:101BFC00DBB212E0FB68581E7B6859680B469B00F1
:101C0C000B4499000B44B0FBF3F30133C3F30B0308
:101C1C00002B0CBF01230023DBB2002B01D00123CE
:101C2C0022E07B689B68002B0ED1FB68581E7B68FA
:101C3C0059680B465B000B44B0FBF3F30133C3F361
:101C4C000B0343F400430FE0FB68581E7B68596894
:101C5C000B469B000B4499000B44B0FBF3F3013390
:101C6C00C3F30B0343F44043796809681343CB6116
:101C7C007B681B681B6823F0C0017B68DA697B6892
:101C8C001B6A1A437B681B680A431A607B681B68D3
:101C9C009B6823F4034323F0FF037A6811697A6885
:101CAC00D26811437A6812680B4393607B681B6897
:101CBC00DB6823F0FF017B685A697B689B691A43D8
:101CCC007B681B680A43DA607B681B681A687B6850
:101CDC001B6842F001021A607B6800221A647B6860
:101CEC00202283F83D207B6800221A637B68002247
:101CFC0083F83E20002318461037BD4680BD00BF38
:101D0C00A08601007F841E00FF083D0083DE1B437C
:101D1C00D34D621080B588B002AFF8607A601A4675
:101D2C000B467B8113463B81FFF7D2FB7861FB6846
:101D3C0093F83D30DBB2202B40F0E0807B690093C0
:101D4C00192301227049F86800F092FA0346002B1F
:101D5C0001D00223D3E0FB6893F83C30012B01D176
:101D6C000223CCE0FB68012283F83C20FB681B6853
:101D7C001B6803F00103012B07D0FB681B681A6872
:101D8C00FB681B6842F001021A60FB681B681A684A
:101D9C00FB681B6822F400621A60FB68212283F83E
:101DAC003D20FB68102283F83E20FB6800221A6459
:101DBC00FB687A685A62FB683A895A85FB685B8DC6
:101DCC009AB2FB681A85FB68504ADA6279897B699A
:101DDC003A6AF86800F0CAF90346002B01D00123D7
:101DEC008DE000233B61FB681B685B693B61FB6812
:101DFC001B689B693B613B6966E07A69396AF868E4
:101E0C0000F050FB0346002B0DD0FB681B6C042B21
:101E1C0007D1FB681B681A68FB681B6842F40072E8
:101E2C001A6001236BE0FB685B6A1A78FB681B681D
:101E3C001A61FB685B6A5A1CFB685A62FB685B8D13
:101E4C009BB2013B9AB2FB685A85FB681B8D013B28
:101E5C009AB2FB681A85FB681B685B6903F0040384
:101E6C00042B1BD1FB681B8D002B17D0FB685B6A06
:101E7C001A78FB681B681A61FB685B6A5A1CFB6862
:101E8C005A62FB685B8D9BB2013B9AB2FB685A8528
:101E9C00FB681B8D013B9AB2FB681A857A69396A1B
:101EAC00F86800F047FB0346002B0DD0FB681B6C59
:101EBC00042B07D1FB681B681A68FB681B6842F48B
:101ECC0000721A6001231AE0FB681B8D002B94D161
:101EDC00FB681B681A68FB681B6842F400721A6086
:101EEC00FB68202283F83D20FB68002283F83E200B
:101EFC00FB68002283F83C20002300E002231846F4
:101F0C001837BD4680BD00BF020010000000FFFF67
:101F1C0080B58AB002AFF8607A603B600B467B817B
:101F2C00FFF7D6FAF8610023BB61FB6893F83D30EC
:101F3C00DBB2202B40F01181FB69009319230122A5
:101F4C008849F86800F094F90346002B01D002236D
:101F5C0004E1FB6893F83C30012B01D10223FDE036
:101F6C00FB68012283F83C20FB681B681B6803F0AC
:101F7C000103012B07D0FB681B681A68FB681B6800
:101F8C0042F001021A60FB681B681A68FB681B6848
:101F9C0022F400621A60FB68242283F83D20FB685F
:101FAC0000221A64FB68704ADA62FB681B681A68C4
:101FBC00FB681B6842F480721A60FB6900933B68F3
:101FCC0000224FF00111F86800F052F90346002B83
:101FDC000DD0FB681B681B6803F48073B3F5807F1E
:101FEC0003D1FB684FF400721A640323B6E07B89BB
:101FFC00DBB21A46FB681B6802F0FE021A61FFF79F
:10200C0067FAF861FB681B685B6903F00203022B3B
:10201C000CBF01230023DBB2FB75FB681B685B69FB
:10202C0003F48063B3F5806F0CBF01230023DBB294
:10203C00BB7525E0FFF74CFA0246FB69D31A3A68E8
:10204C009A4202D33B68002B03D1FB68A02283F891
:10205C003D20FB681B685B6903F00203022B0CBF7D
:10206C0001230023DBB2FB75FB681B685B6903F47F
:10207C008063B3F5806F0CBF01230023DBB2BB750B
:10208C00FB6893F83D30DBB2A02B05D0FB7D002B19
:10209C0002D1BB7D002BCDD0FB68202283F83D20E4
:1020AC00FB681B685B6903F00203022B29D1FB68F8
:1020BC001B681A68FB681B6842F400721A600023E4
:1020CC003B61FB681B685B693B61FB681B689B6938
:1020DC003B613B69FB690093192301222149F86894
:1020EC0000F0C6F80346002B01D0012336E0FB6854
:1020FC00202283F83D20FB68002283F83C2000233B
:10210C002CE0FB681B681A68FB681B6842F40072C1
:10211C001A60FB681B686FF480625A61FB6900935C
:10212C00192301220F49F86800F0A2F80346002B8E
:10213C0001D0012312E0BB690133BB61BA697B6832
:10214C009A42FFF432AFFB68202283F83D20FB68F3
:10215C00002283F83C20012300E00223184620379C
:10216C00BD4680BD020010000000FFFF80B588B0A6
:10217C0002AFF8607A603B600B467B81FB68DB6AE0
:10218C007B617B69082B06D07B69012B03D07B69B3
:10219C0013F5803F08D1FB681B681A68FB681B6845
:1021AC0042F480721A600BE0FB681B6B122B07D198
:1021BC00FB681B681A68FB681B6842F480721A6023
:1021CC003B6800937B6800224FF00111F86800F027
:1021DC004FF80346002B0DD0FB681B681B6803F4FB
:1021EC008073B3F5807F03D1FB684FF400721A64DF
:1021FC00032335E0FB681B69B3F5804F08D17B895D
:10220C00DBB21A46FB681B6802F0FE021A611BE087
:10221C007B89DB11DBB203F00603DBB263F00F0347
:10222C00DAB2FB681B681A613B687A680E49F86879
:10223C0000F098F80346002B01D0012310E07B89B5
:10224C00DAB2FB681B681A613B687A680749F86860
:10225C0000F088F80346002B01D0012300E0002396
:10226C0018461837BD4680BD080001000200010069
:10227C0080B584B000AFF860B9603B601346FB7169
:10228C0048E03B68B3F1FF3F44D0FFF721F9024629
:10229C00BB69D31A3A689A4202D33B68002B39D1F6
:1022AC00BB681B0CDBB2012B0DD1FB681B685B6997
:1022BC00DA43BB6813409BB2002B0CBF01230023F5
:1022CC00DBB21A460CE0FB681B689B69DA43BB68FF
:1022DC0013409BB2002B0CBF01230023DBB21A4628
:1022EC00FB799A4216D1FB6800221A63FB68202204
:1022FC0083F83D20FB68002283F83E20FB681B6CB2
:10230C0043F02002FB681A64FB68002283F83C202F
:10231C00012323E0BB681B0CDBB2012B0DD1FB6846
:10232C001B685B69DA43BB6813409BB2002B0CBF84
:10233C0001230023DBB21A460CE0FB681B689B6987
:10234C00DA43BB6813409BB2002B0CBF0123002364
:10235C00DBB21A46FB799A4293D000231846103709
:10236C00BD4680BD80B584B000AFF860B9607A60BE
:10237C003B6071E0FB681B685B6903F48063B3F539
:10238C00806F23D1FB681B681A68FB681B6842F4DA
:10239C0000721A60FB681B686FF480625A61FB68FC
:1023AC0000221A63FB68202283F83D20FB68002280
:1023BC0083F83E20FB681B6C43F00402FB681A6434
:1023CC00FB68002283F83C20012367E07B68B3F1B3
:1023DC00FF3F41D0FFF77CF802463B68D31A7A687E
:1023EC009A4202D37B68002B36D1BB681B0CDBB244
:1023FC00012B0CD1FB681B685B69DA43BB6813408B
:10240C009BB2002B14BF01230023DBB20BE0FB6853
:10241C001B689B69DA43BB6813409BB2002B14BF4B
:10242C0001230023DBB2002B16D0FB6800221A63B9
:10243C00FB68202283F83D20FB68002283F83E20B5
:10244C00FB681B6C43F02002FB681A64FB680022DB
:10245C0083F83C20012321E0BB681B0CDBB2012B71
:10246C000CD1FB681B685B69DA43BB6813409BB2F9
:10247C00002B14BF01230023DBB20BE0FB681B68AD
:10248C009B69DA43BB6813409BB2002B14BF01233A
:10249C000023DBB2002B7FF46DAF002318461037FE
:1024AC00BD4680BD80B584B000AFF860B9607A607D
:1024BC0034E0F86800F086F80346002B01D00123C5
:1024CC0034E0BB68B3F1FF3F28D0FFF701F80246B8
:1024DC007B68D31ABA689A4202D3BB68002B1DD111
:1024EC00FB681B685B6903F08003802B16D0FB68CC
:1024FC0000221A63FB68202283F83D20FB6800222F
:10250C0083F83E20FB681B6C43F02002FB681A64C6
:10251C00FB68002283F83C20012307E0FB681B6862
:10252C005B6903F08003802BC3D10023184610375E
:10253C00BD4680BD80B584B000AFF860B9607A60EC
:10254C0034E0F86800F03EF80346002B01D001237C
:10255C0034E0BB68B3F1FF3F28D0FEF7B9FF024669
:10256C007B68D31ABA689A4202D3BB68002B1DD180
:10257C00FB681B685B6903F00403042B16D0FB6833
:10258C0000221A63FB68202283F83D20FB6800229E
:10259C0083F83E20FB681B6C43F02002FB681A6436
:1025AC00FB68002283F83C20012307E0FB681B68D2
:1025BC005B6903F00403042BC3D1002318461037C6
:1025CC00BD4680BD80B483B000AF78607B681B686B
:1025DC005B6903F48063B3F5806F1BD17B681B6868
:1025EC006FF480625A617B6800221A637B68202238
:1025FC0083F83D207B68002283F83E207B681B6CAF
:10260C0043F004027B681A647B68002283F83C2048
:10261C00012300E0002318460C37BD4680BC7047F0
:10262C0080B586B000AF78607B68002B01D10123A8
:10263C0072E27B681B6803F00103002B00F08780BB
:10264C00924B5B6803F00C03042B0CD08F4B5B6834
:10265C0003F00C03082B12D18C4B5B6803F4803312
:10266C00B3F5803F0BD1894B1B6803F40033002B6F
:10267C006CD07B685B68002B68D101234CE27B68D3
:10268C005B68B3F5803F06D1804B1B687F4A43F4EF
:10269C00803313602EE07B685B68002B0CD17B4B86
:1026AC001B687A4A23F480331360784B1B68774A93
:1026BC0023F4802313601DE07B685B68B3F5A02FC7
:1026CC000CD1724B1B68714A43F4802313606F4B1F
:1026DC001B686E4A43F4803313600BE06B4B1B6832
:1026EC006A4A23F480331360684B1B68674A23F4EF
:1026FC00802313607B685B68002B13D0FEF7E8FE29
:10270C00386108E0FEF7E4FE02463B69D31A642BFD
:10271C0001D9032300E25D4B1B6803F40033002B4B
:10272C00F0D014E0FEF7D4FE386108E0FEF7D0FEDE
:10273C0002463B69D31A642B01D90323ECE1534BBA
:10274C001B6803F40033002BF0D100E000BF7B6862
:10275C001B6803F00203002B63D04C4B5B6803F047
:10276C000C03002B0BD0494B5B6803F00C03082BBC
:10277C001CD1464B5B6803F48033002B16D1434BC2
:10278C001B6803F00203002B05D07B681B69012B2F
:10279C0001D00123C0E13D4B1B6823F0F8027B689C
:1027AC005B69DB00394913430B603AE07B681B69BA
:1027BC00002B20D0364B01221A60FEF789FE3861BF
:1027CC0008E0FEF785FE02463B69D31A022B01D9BD
:1027DC000323A1E12D4B1B6803F00203002BF0D067
:1027EC002A4B1B6823F0F8027B685B69DB002749E6
:1027FC0013430B6015E0264B00221A60FEF768FEAF
:10280C00386108E0FEF764FE02463B69D31A022BDE
:10281C0001D9032380E11D4B1B6803F00203002B3D
:10282C00F0D17B681B6803F00803002B3AD07B685F
:10283C009B69002B19D0174B01221A60FEF748FE3A
:10284C00386108E0FEF744FE02463B69D31A022BBE
:10285C0001D9032360E10D4B5B6A03F00203002BEB
:10286C00F0D0012000F0BAFA1CE00A4B00221A60EA
:10287C00FEF72EFE38610FE0FEF72AFE02463B699A
:10288C00D31A022B08D9032346E100BF00100240E3
:10289C000000424280044242924B5B6A03F0020306
:1028AC00002BE9D17B681B6803F00403002B00F0BC
:1028BC00A6800023FB758B4BDB6903F08053002B48
:1028CC000DD1884BDB69874A43F08053D361854B2C
:1028DC00DB6903F08053BB60BB680123FB75824B43
:1028EC001B6803F48073002B18D17F4B1B687E4A46
:1028FC0043F480731360FEF7EBFD386108E0FEF7DC
:10290C00E7FD02463B69D31A642B01D9032303E18B
:10291C00754B1B6803F48073002BF0D07B68DB686D
:10292C00012B06D16F4B1B6A6E4A43F001031362F5
:10293C002DE07B68DB68002B0CD16A4B1B6A694A63
:10294C0023F001031362674B1B6A664A23F00403EE
:10295C0013621CE07B68DB68052B0CD1614B1B6A96
:10296C00604A43F0040313625E4B1B6A5D4A43F0FA
:10297C00010313620BE05B4B1B6A5A4A23F0010301
:10298C001362584B1B6A574A23F0040313627B688B
:10299C00DB68002B15D0FEF79BFD38610AE0FEF7D3
:1029AC0097FD02463B69D31A41F28832934201D912
:1029BC000323B1E04B4B1B6A03F00203002BEED058
:1029CC0014E0FEF785FD38610AE0FEF781FD024652
:1029DC003B69D31A41F28832934201D903239BE01D
:1029EC00404B1B6A03F00203002BEED1FB7D012B45
:1029FC0005D13C4BDB693B4A23F08053D3617B68A8
:102A0C00DB69002B00F08780364B5B6803F00C030E
:102A1C00082B61D07B68DB69022B46D1334B00223B
:102A2C001A60FEF755FD386108E0FEF751FD0246CD
:102A3C003B69D31A022B01D903236DE0294B1B6888
:102A4C0003F00073002BF0D17B681B6AB3F5803F59
:102A5C0008D1244B5B6823F400327B689B682149C6
:102A6C0013434B601F4B5B6823F474127B68196A29
:102A7C007B685B6A0B431B4913434B601B4B012266
:102A8C001A60FEF725FD386108E0FEF721FD0246CD
:102A9C003B69D31A022B01D903233DE0114B1B6870
:102AAC0003F00073002BF0D035E0104B00221A60BD
:102ABC00FEF70EFD386108E0FEF70AFD02463B69A1
:102ACC00D31A022B01D9032326E0064B1B6803F013
:102ADC000073002BF0D11EE07B68DB69012B07D162
:102AEC00012319E0001002400070004060004242D7
:102AFC000B4B5B68FB60FB6803F480327B681B6AE2
:102B0C009A4206D1FB6803F470127B685B6A9A42A6
:102B1C0001D0012300E0002318461837BD4680BDC4
:102B2C000010024080B584B000AF786039607B68DB
:102B3C00002B01D10123D0E06A4B1B6803F0070383
:102B4C003A689A4210D9674B1B6823F00702654913
:102B5C003B6813430B60634B1B6803F007033A6835
:102B6C009A4201D00123B8E07B681B6803F0020392
:102B7C00002B20D07B681B6803F00403002B05D0CE
:102B8C00594B5B68584A43F4E06353607B681B689D
:102B9C0003F00803002B05D0534B5B68524A43F4F7
:102BAC0060535360504B5B6823F0F0027B689B686A
:102BBC004D4913434B607B681B6803F00103002BEA
:102BCC0040D07B685B68012B07D1474B1B6803F433
:102BDC000033002B15D101237FE07B685B68022B4F
:102BEC0007D1414B1B6803F00073002B09D1012363
:102BFC0073E03D4B1B6803F00203002B01D1012352
:102C0C006BE0394B5B6823F003027B685B683649E9
:102C1C0013434B60FEF75CFCF8600AE0FEF758FCCF
:102C2C000246FB68D31A41F28832934201D903233E
:102C3C0053E02D4B5B6803F00C027B685B689B00D8
:102C4C009A42EBD1274B1B6803F007033A689A4270
:102C5C0010D2244B1B6823F0070222493B68134314
:102C6C000B60204B1B6803F007033A689A4201D0B3
:102C7C00012332E07B681B6803F00403002B08D0AF
:102C8C00194B5B6823F4E0627B68DB6816491343DD
:102C9C004B607B681B6803F00803002B09D0124BB8
:102CAC005B6823F460527B681B69DB000E4913439D
:102CBC004B6000F021F802460B4B5B681B0903F0DC
:102CCC000F030A49CB5C22FA03F3094A1360094B40
:102CDC001B681846FEF7BAFB002318461037BD4692
:102CEC0080BD00BF0020024000100240744000086C
:102CFC000C0000201000002080B487B000AF00232F
:102D0C00FB600023BB6000237B6100237B600023FE
:102D1C003B611E4B5B68FB60FB6803F00C03042BF0
:102D2C0002D0082B03D027E0194B3B6127E0FB684E
:102D3C009B0C03F00F03174AD35C7B60FB6803F416
:102D4C008033002B10D0114B5B685B0C03F001033C
:102D5C00114AD35CBB607B680D4A03FB02F2BB6873
:102D6C00B2FBF3F37B6104E07B680C4A02FB03F3D8
:102D7C007B617B693B6102E0054B3B6100BF3B69BA
:102D8C0018461C37BD4680BC704700BF001002407F
:102D9C0000127A008C4000089C40000800093D009D
:102DAC0080B400AF024B1B681846BD4680BC704710
:102DBC000C00002080B500AFFFF7F2FF0246054B78
:102DCC005B681B0A03F007030349CB5C22FA03F38D
:102DDC00184680BD001002408440000880B485B0C5
:102DEC0000AF78600A4B1B680A4AA2FB03235B0AFC
:102DFC007A6802FB03F3FB6000BFFB685A1EFA60A3
:102E0C00002BF9D100BF00BF1437BD4680BC704702
:102E1C000C000020D34D621080B582B000AF7860FA
:102E2C007B68002B01D1012341E07B6893F83D3096
:102E3C00DBB2002B06D17B68002283F83C2078683B
:102E4C00FEF744FA7B68022283F83D207B681A68FF
:102E5C007B6804331946104600F040F97B68012268
:102E6C0083F846207B68012283F83E207B68012290
:102E7C0083F83F207B68012283F840207B68012285
:102E8C0083F841207B68012283F842207B68012271
:102E9C0083F843207B68012283F844207B6801225D
:102EAC0083F845207B68012283F83D2000231846D7
:102EBC000837BD4680BD000080B485B000AF786097
:102ECC007B6893F83D30DBB2012B01D0012332E05B
:102EDC007B68022283F83D207B681B68184A93426A
:102EEC000ED07B681B68B3F1804F09D07B681B68E0
:102EFC00144A934204D07B681B68134A934211D145
:102F0C007B681B689B6803F00703FB60FB68062B60
:102F1C0010D07B681B681A687B681B6842F0010242
:102F2C001A6007E07B681B681A687B681B6842F0B4
:102F3C0001021A60002318461437BD4680BC704746
:102F4C00002C0140000400400008004080B584B013
:102F5C0000AF786039600023FB737B6893F83C30DA
:102F6C00012B01D10223B4E07B68012283F83C20C1
:102F7C007B68022283F83D207B681B689B68BB60E2
:102F8C00BB6823F07703BB60BB6823F47F43BB6053
:102F9C007B681B68BA689A603B681B68B3F5005F76
:102FAC003ED0B3F5005F00F28780B3F5805F00F090
:102FBC008680B3F5805F7FD8702B1AD0702B7BD8AE
:102FCC00602B50D0602B77D8502B3CD0502B73D823
:102FDC00402B58D0402B6FD8302B64D0302B6BD873
:102FEC00202B60D0202B67D8002B5CD0102B5AD014
:102FFC0062E07B6818683B6899683B685A683B6874
:10300C00DB6800F050F97B681B689B68BB60BB6891
:10301C0043F07703BB607B681B68BA689A604FE02B
:10302C007B6818683B6899683B685A683B68DB6842
:10303C0000F039F97B681B689A687B681B6842F45E
:10304C0080429A603CE07B6818683B6859683B6832
:10305C00DB681A4600F0B0F87B681B6850211846F4
:10306C0000F007F92CE07B6818683B6859683B68EE
:10307C00DB681A4600F0CEF87B681B6860211846A6
:10308C0000F0F7F81CE07B6818683B6859683B68EF
:10309C00DB681A4600F090F87B681B6840211846E4
:1030AC0000F0E7F80CE07B681A683B681B6819466F
:1030BC00104600F0DEF803E00123FB7300E000BFD4
:1030CC007B68012283F83D207B68002283F83C203A
:1030DC00FB7B18461037BD4680BD000080B485B020
:1030EC0000AF786039607B681B68FB607B682F4A97
:1030FC0093420BD07B68B3F1804F07D07B682C4A8E
:10310C00934203D07B682B4A934208D1FB6823F08F
:10311C007003FB603B685B68FA681343FB607B6879
:10312C00224A93420BD07B68B3F1804F07D07B6867
:10313C001F4A934203D07B681E4A934208D1FB6816
:10314C0023F44073FB603B68DB68FA681343FB6055
:10315C00FB6823F080023B685B691343FB607B6870
:10316C00FA681A603B689A687B68DA623B681A688E
:10317C007B689A627B680D4A934203D13B681A695B
:10318C007B681A637B6801225A617B681B6903F0B8
:10319C000103002B05D07B681B6923F001027B68BF
:1031AC001A6100BF1437BD4680BC7047002C01402B
:1031BC00000400400008004080B487B000AFF86005
:1031CC00B9607A60FB681B6A7B61FB681B6A23F041
:1031DC000102FB681A62FB689B693B613B6923F047
:1031EC00F0033B617B681B013A6913433B617B69CC
:1031FC0023F00A037B617A69BB6813437B61FB682C
:10320C003A699A61FB687A691A6200BF1C37BD463D
:10321C0080BC704780B487B000AFF860B9607A604A
:10322C00FB681B6A7B61FB681B6A23F01002FB685E
:10323C001A62FB689B693B613B6923F470433B61F9
:10324C007B681B033A6913433B617B6923F0A00342
:10325C007B61BB681B017A6913437B61FB683A692C
:10326C009A61FB687A691A6200BF1C37BD4680BC44
:10327C00704780B485B000AF786039607B689B681C
:10328C00FB60FB6823F07003FB603A68FB68134338
:10329C0043F00703FB607B68FA689A6000BF143741
:1032AC00BD4680BC704780B487B000AFF860B96091
:1032BC007A603B60FB689B687B617B6923F47F438E
:1032CC007B613B681A027B681A43BB6813437A69BB
:1032DC0013437B61FB687A699A6000BF1C37BD465B
:1032EC0080BC704780B485B000AF786039607B6873
:1032FC0093F83C30012B01D1022346E07B6801227C
:10330C0083F83C207B68022283F83D207B681B6895
:10331C005B68FB607B681B689B68BB60FB6823F089
:10332C007003FB603B681B68FA681343FB607B68A7
:10333C001B68FA685A607B681B68164A93420ED069
:10334C007B681B68B3F1804F09D07B681B68124AFD
:10335C00934204D07B681B68104A93420CD1BB6823
:10336C0023F08003BB603B685B68BA681343BB60A7
:10337C007B681B68BA689A607B68012283F83D20E1
:10338C007B68002283F83C20002318461437BD4686
:10339C0080BC7047002C0140000400400008004035
:1033AC000EB46FF0004110B500249DB01FAB02901D
:1033BC000690079104910948094953F8042B05918B
:1033CC00006802A901931B9400F092F9029B1C70F7
:1033DC001DB0BDE8104003B0704700BF18000020BE
:1033EC000802FFFF03460244934200D1704703F8E2
:1033FC00011BF9E7014B1868704700BF180000204B
:10340C0070B500260C4D0D4C641BA410A64209D1BE
:10341C0000F076FC00260A4D0A4C641BA410A64250
:10342C0005D170BD55F8043B98470136EEE755F8C9
:10343C00043B98470136F2E7D4400008D44000081A
:10344C00D4400008D84000087047704738B505468E
:10345C00002940D051F8043C0C1F002BB8BFE418D5
:10346C0000F0DEF81C4A136833B963601460284618
:10347C00BDE8384000F0DAB8A34208D9206821181A
:10348C008B4201BF19685B6809182160EDE71A4689
:10349C005B680BB1A342FAD911685018A0420BD14A
:1034AC0020680144501883421160E0D118685B68B1
:1034BC00084410605360DAE702D90C232B60D6E77E
:1034CC00206821188B4201BF19685B6809182160BC
:1034DC0063605460CBE738BDC806002070B50F4E52
:1034EC000C463168054611B900F0A8FB3060214646
:1034FC00284600F0A3FB431C03D14FF0FF342046B9
:10350C0070BDC41C24F00304A042F8D0211A284634
:10351C0000F094FB0130F2D1EFE700BFC4060020AD
:10352C002DE9F843CD1C25F0030508350C2D38BFCB
:10353C000C25002D064601DBA94204D90C2333606F
:10354C000020BDE8F883DFF8D48000F069F8D8F8E3
:10355C0000301C4644BB29463046FFF7BFFF431CD6
:10356C00044658D1D8F800402746002F43D1002CF0
:10357C004BD023683946304604EB030900F05EFB60
:10358C00814542D1216830466D1A2946FFF7A6FFC6
:10359C0001303AD023682B442360D8F800305A68A5
:1035AC0062BBC8F800700FE02268521B20D40B2AB3
:1035BC0017D96119A342256018BF5960636808BF09
:1035CC00C8F8001062514B60304600F02FF804F13F
:1035DC000B00231D20F00700C21A1CBF1B1AA3509E
:1035EC00AFE76268A3420CBFC8F800205A60EBE753
:1035FC0023466468AEE73C467F68B6E71A465B68CC
:10360C00A342FBD100235360DEE70C23304633602A
:10361C0000F00CF894E70560D6E700BFC806002060
:10362C000148FFF711BF00BFC00600200148FFF79B
:10363C000CBF00BFC00600202DE9F0471F468E6866
:10364C008246BE420C4690460B682DD8B1F90C2030
:10365C0012F4906F26D06569096905EB4505A3EB5B
:10366C00010905EBD5757B1C4B446D109D4238BF91
:10367C001D46530527D52946FFF752FF064660B372
:10368C004A46216900F0F8FAA38923F4906343F0C9
:10369C008003A38126614E4426603E466561A5EBFE
:1036AC000905A560BE4200D93E4632464146206817
:1036BC0000F0AAFA0020A3689B1BA3602368334484
:1036CC002360BDE8F0872A4600F0E4FA064600289D
:1036DC00E0D150462169FFF7B9FE0C23CAF800303F
:1036EC00A3894FF0FF3043F04003A381E9E70000CA
:1036FC002DE9F04F98468B8907461B060D4614465C
:10370C009DB010D50B6973B94021FFF709FF2860F4
:10371C00286130B90C233B604FF0FF301DB0BDE881
:10372C00F08F40236B610023099320238DF82930FF
:10373C0030234FF00109CDF80C80DFF898818DF81B
:10374C002A3023469A4613F8012B0AB1252AF9D1BF
:10375C00BAEB040B0BD05B46224629463846FFF7E2
:10376C006BFF013000F0A780099A5A4409929AF82D
:10377C000030002B00F09F8000234FF0FF32CDE98A
:10378C0005230AF1010A049307938DF853301A9319
:10379C005446052214F8011B4E4800F05FFA049AB7
:1037AC00D8B9D00644BF20238DF85330110744BF3D
:1037BC002B238DF853309AF800302A2B15D0544611
:1037CC0000204FF00A0C079A214611F8013B303BC0
:1037DC00092B4BD9B0B1079214E0A0EB080309FAFE
:1037EC0003F31343A2460493D2E7039B191D1B68F2
:1037FC000391002BBBBF5B4242F00202079307937D
:10380C00B8BF049223782E2B0AD163782A2B32D19D
:10381C00039B02341A1D1B68039243EAE37305935E
:10382C00DFF8B4A003225046217800F017FA38B123
:10383C004022049BA0EB0A00824013430134049302
:10384C0014F8011B062225488DF8281000F006FA02
:10385C00002836D0224B1BBB039B073323F00703F6
:10386C0008330393099B334409936AE70C46012000
:10387C000CFB0232A8E700234FF00A0C1946013466
:10388C000593204610F8012B303A092A03D9002B56
:10389C00C6D00591C4E7044601230CFB0121F0E7D7
:1038AC0003AB00932A4638460E4B04A9AFF30080B5
:1038BC00421C0646D6D1AB895B063FF52DAF099865
:1038CC002CE703AB00932A463846064B04A900F0BC
:1038DC007DF8EDE79E400008A4400008A8400008D1
:1038EC0000000000453600082DE9F04716469846C2
:1038FC008A680B6907469342B8BF1346336091F848
:10390C0043200C46DDF820900AB101333360236864
:10391C00990642BF336802333360256815F00605FB
:10392C0006D104F1190AE36832689B1AAB422BDC0E
:10393C0094F843302268003B18BF0123920630D420
:10394C004146384604F14302C847013023D023686E
:10395C00226903F00603042B14BF002533684FF0D3
:10396C00000608BFE56804F11A0408BFED1A54F804
:10397C00123C08BF25EAE5759342C4BF9B1AED18AB
:10398C00B5421AD1002008E0012352464146384680
:10399C00C847013003D14FF0FF30BDE8F087013547
:1039AC00C1E73020E11881F843005A1C94F8451007
:1039BC002244023382F84310C2E7012322464146D7
:1039CC003846C8470130E6D00136D9E72DE9FF4724
:1039DC000F7E9146782F80460C469A460C9E01F13C
:1039EC00430207D8622F0AD8002F00F0D180582F3D
:1039FC0000F0B88004F1420684F842703AE0A7F176
:103A0C006303152BF6D801A151F823F0713A000885
:103A1C00853A0008013A0008013A0008013A00080A
:103A2C00013A0008853A0008013A0008013A0008FA
:103A3C00013A0008013A0008833B0008AF3A00083D
:103A4C003D3B0008013A0008013A0008A53B00087C
:103A5C00013A0008AF3A0008013A0008013A0008A0
:103A6C00453B000833681A1D1B68326004F142069E
:103A7C0084F8423001239CE033682068191D3160C2
:103A8C00060601D51D6803E04506FBD5B3F90050C9
:103A9C00002D03DA2D236D4284F843300A23584855
:103AAC0011E021683368080653F8045B02D4490618
:103ABC0048BFADB26F2F336014BF0A2308235048A0
:103ACC00002184F843106668002EA66005DB21688F
:103ADC002E4321F0040121604BD01646B5FBF3F1C7
:103AEC0003FB1157C75D06F8017D2F46BB420D46FF
:103AFC00F4D9082B0BD12368DF0708D5236961683B
:103B0C009942DEBF302306F8013C06F1FF36921BCA
:103B1C0022614B4621464046CDF800A003AAFFF790
:103B2C00E3FE01304AD14FF0FF3004B0BDE8F0871E
:103B3C00236843F0200323607827324884F84570CB
:103B4C00236831681F0651F8045B02D45F0648BF36
:103B5C00ADB23160D90744BF43F0200323601DB1DF
:103B6C001023ADE72648E9E7236823F02003236000
:103B7C00F6E71646BDE733682568181D61693060A5
:103B8C002E061B6801D5196002E06806FBD519806A
:103B9C00002316462361BCE7336800211A1D3260EE
:103BAC001E686268304600F059F808B1801B6060EE
:103BBC0063682361002384F84330AAE73246494600
:103BCC0040462369D0470130ADD023689B0713D4FE
:103BDC00E068039B9842B8BF1846A6E7012332461B
:103BEC0049464046D04701309DD00135E3680399E2
:103BFC005B1AAB42F2DCEBE7002504F11906F5E7A2
:103C0C00AF400008C0400008884210B501EB020428
:103C1C0002D98442234607D8431EA14208D011F88A
:103C2C00012B03F8012FF8E7014602448A4200D128
:103C3C0010BD13F8014D02F8014DF7E738B500231C
:103C4C00054D044608462B60FDF788FB431C02D14A
:103C5C002B6803B1236038BDBC060020034610B5A9
:103C6C00C9B202449342184601D1002003E0047803
:103C7C0001338C42F6D110BD0A44914200F1FF335E
:103C8C0000D1704710B511F8014B914203F8014F68
:103C9C00F9D110BD2DE9F041074614460D4621B966
:103CAC001146BDE8F041FFF73BBC2AB9FFF7CEFB4C
:103CBC0025462846BDE8F08100F01AF884420646F5
:103CCC0002D8B4EB500FF4D821463846FFF728FC45
:103CDC00804608B94546ECE7B4422246294628BF3F
:103CEC003246FFF7C9FF29463846FFF7AFFBF1E72D
:103CFC0051F8043C181F002BBCBF0B58C018704760
:103D0C00F8B500BFF8BC08BC9E467047F8B500BFBC
:083D1C00F8BC08BC9E4670478C
:103D24005445535400000000353A2044485431317E
:103D340000000000383A20536F6E617200000000EA
:103D4400393A2052657475726E00000052656164E0
:103D5400696E672044485431312E2E2E0000000035
:103D640054656D703A2025642E25642043000000BC
:103D740048756D69643A2025642E25642025250044
:103D8400484947482054454D5021000050726573FE
:103D940073203920746F2065786974004448543165
:103DA40031204572726F7221000000004368656320
:103DB4006B20776972696E67000000005265616468
:103DC400696E6720536F6E61722E2E2E0000000004
:103DD4004E6F206F626A65637420666F756E64004F
:103DE4004F7574206F662072616E67650000000075
:103DF400283E3230636D290044697374616E6365D3
:103E04003A20256C6420636D000000004F424A454F
:103E14004354204445544543544544210000000084
:103E2400000000000000000000000000183C3C18E6
:103E34001800180000666624000000000000003628
:103E4400367F367F36360000183E55543C15553EB5
:103E54001800006333180C6663000000001C361C55
:103E64006E3B336E000000060603000000000000F5
:103E740000180C0606060C18000000060C1818188A
:103E84000C0600000000361C7F1C360000000000F9
:103E94000C0C3F0C0C0000000000000000000C069D
:103EA4000300000000003F000000000000000000CC
:103EB40000000C0C0000006030180C060301000028
:103EC400003E63737B6F673E0000000C0E0C0C0C0D
:103ED4000C3F0000001E33301C06333F0000001E60
:103EE40033301C30331E000000383C36337F3078CA
:103EF4000000003F031F3030331E0000001C060387
:103F04001F33331E0000003F3330180C0C0C00002C
:103F1400001E33331E33331E0000001E33333E3085
:103F2400180E000000000C0C00000C0C0000000037
:103F34000C0C000C0C06030000180C0603060C18ED
:103F440000000000003F003F0000000000060C18C5
:103F540030180C060000001E3330180C000C000052
:103F6400003E637B7B7B031E0000000C1E33333F4B
:103F740033330000003F66663E66663F0000003C47
:103F840066030303663C0000001F36666666361F40
:103F94000000007F06063E06067F0000007F06063E
:103FA4003E0606060000003C66030373667C0000C0
:103FB400003333333F3333330000001E0C0C0C0C3E
:103FC4000C1E0000007830303033331E00000067D0
:103FD40066361E3666670000000F06060606467F34
:103FE40000000063777F7F6B636300000063676F8B
:103FF4007B7363630000001C36636363361C00003C
:10400400003F66663E06060F0000001E3333333B56
:104014001E380000003F66663E3666670000001EDC
:1040240033070E38331E0000003F2D0C0C0C0C1E01
:104034000000003333333333333F00000033333372
:10404400331E0C0C0000006363636B7F7763000016
:10405400006363361C3663630000003333331E0C85
:104064000C1E0000007F6331184C667F00000000C6
:104074000000000000000000010203040607080914
:1040840000000000010203040203040506070809F6
:104094000A0B0C0D0E0F10100102232D302B2000E3
:1040A400686C4C00656667454647003031323334EE
:1040B400353637383941424344454600303132338E
:1040C4003435363738396162636465660000000050
:0440D40031010008AE
:0440D8000D010008CE
:1040DC00070A0000243E00083C00000000127A0091
:1040EC0010000000010000001C0000200000000077
:1040FC0084050020EC050020540600200000000080
:10410C0000000000000000000000000000000000A3
:10411C000000000000000000000000000000000093
:10412C000000000000000000000000000000000083
:08413C0000000000000000007B
:04000005080013E1FB
:00000001FF
